:100000000C9462000C948A000C948A000C948A0070
:100010000C948A000C948A000C948A000C948A0038
:100020000C948A000C948A000C948A000C948A0028
:100030000C948A000C948A000C948A000C948A0018
:100040000C945B060C948A000C94CB060C94A506C9
:100050000C948A000C948A000C948A000C948A00F8
:100060000C94FD060C948A00000000002400270078
:100070002A0000000000250028002B0000000000DE
:1000800023002600290004040404040404040202DA
:100090000202020203030303030301020408102007
:1000A0004080010204081020010204081020000012
:1000B0000008000201000003040700000000000027
:1000C00000001C0811241FBECFEFD8E0DEBFCDBF5B
:1000D00011E0A0E0B1E0EEE1FBE102C005900D927D
:1000E000A83EB107D9F723E0A8EEB1E001C01D9208
:1000F000AA3EB207E1F710E0C2E6D0E004C02197C3
:10010000FE010E94870DC136D107C9F70E94E7089A
:100110000C948D0D0C94000096E0899FD001112461
:10012000AD59BC4F90967C936E935F9791E09196FA
:100130009C939197E091D003F091D1039091CF03DC
:10014000992339F0309751F0811108C080917F03D5
:100150000994309719F05C968C91FACF0895CF925C
:10016000DF92EF92FF920F931F9396E0899FF00129
:100170001124ED59FC4F11A2278D30A121303105FA
:1001800051F178F02230310509F451C023303105A6
:1001900009F452C01F910F91FF90EF90DF90CF9024
:1001A00008956623B9F361E070E00E948C002FB7D8
:1001B000F8948091B6029091B702A091B802B091E4
:1001C000B9022FBF8093BB039093BC03A093BD03E0
:1001D000B093BE03DFCF9FB7F894C090B602D09023
:1001E000B702E090B802F090B9029FBF0091BB0344
:1001F0001091BC032091BD033091BE03C01AD10AF7
:10020000E20AF30A0091CD031091CE0330E020E022
:100210000C151D052E053F0550F462E070E01F919E
:100220000F91FF90EF90DF90CF900C948C006111B4
:10023000B1CF63E070E0F3CF70E060E0F0CF8330E7
:1002400081F028F4813099F08230A9F00895873048
:10025000A9F08830C9F08430B1F4809180008F7D9E
:1002600003C0809180008F7780938000089584B5CB
:100270008F7784BD089584B58F7DFBCF8091B000CA
:100280008F778093B00008958091B0008F7DF9CF73
:10029000CF93DF93282F30E0F901E255FF4F84918F
:1002A000F901E656FF4FD491F901EA57FF4FC49187
:1002B000CC23A1F081110E941F01EC2FF0E0EE0F82
:1002C000FF1FE458FF4FA591B491EC91ED2381E01D
:1002D00090E009F480E0DF91CF91089580E090E014
:1002E000FACF1F93CF93DF93282F30E0F901E25527
:1002F000FF4F8491F901E656FF4FD491F901EA5777
:10030000FF4FC491CC23A9F0162F81110E941F0129
:10031000EC2FF0E0EE0FFF1FEE58FF4FA591B491C8
:100320008FB7F894EC91111108C0D095DE23DC93BF
:100330008FBFDF91CF911F910895DE2BF8CFCF9320
:10034000DF9390E0FC01E656FF4F24918A579F4FC0
:10035000FC0184918823C9F090E0880F991FFC016B
:10036000E859FF4FA591B491FC01EE58FF4FC5919C
:10037000D49161110DC09FB7F8948C912095822380
:100380008C938881282328839FBFDF91CF91089584
:10039000623051F49FB7F8943C91822F809583236B
:1003A0008C93E8812E2BEFCF8FB7F894EC912E2B06
:1003B0002C938FBFEACF3FB7F8948091B20290910F
:1003C000B302A091B402B091B50226B5A89B05C0B6
:1003D0002F3F19F00196A11DB11D3FBFBA2FA92FC4
:1003E000982F8827BC01CD01620F711D811D911DC1
:1003F00042E0660F771F881F991F4A95D1F708952D
:100400008F929F92AF92BF92CF92DF92EF92FF9224
:100410000E94DB014B015C0184EFC82EDD24D394E4
:10042000E12CF12C0E94DB01681979098A099B09EA
:10043000683E734081059105A8F321E0C21AD108F6
:10044000E108F10888EE880E83E0981EA11CB11C1B
:10045000C114D104E104F10429F7FF90EF90DF907B
:10046000CF90BF90AF909F908F900895862F642F6C
:100470000C949F01862F642F0C947101862F0C948D
:10048000480108950895AF92BF92CF92DF92EF9204
:10049000FF920F931F93CF93DF936C017B018B012E
:1004A000040F151FEB015E01AE18BF08C017D1077E
:1004B00059F06991D601ED91FC910190F081E02D08
:1004C000C6010995892B79F7C501DF91CF911F915D
:1004D0000F91FF90EF90DF90CF90BF90AF90089575
:1004E000FC01538D448D252F30E0842F90E0821B3A
:1004F000930B541710F0CF96089501970895FC01BF
:10050000918D828D981761F0A28DAE0FBF2FB11D16
:100510005D968C91928D9F5F9F73928F90E008956E
:100520008FEF9FEF0895FC01918D828D981731F028
:10053000828DE80FF11D858D90E008958FEF9FEF7C
:100540000895FC01918D228D892F90E0805C9F4F52
:10055000821B91098F73992708958AEB92E00E947C
:10056000A10221E0892B09F420E0822F089580E088
:1005700090E0892B29F00E94AD0281110C940000BB
:100580000895FC01A48DA80FB92FB11DA35ABF4F28
:100590002C91848D90E001968F739927848FA68982
:1005A000B7892C93A089B1898C91837080648C93D6
:1005B000938D848D981306C00288F389E02D808185
:1005C0008F7D80830895EF92FF920F931F93CF93B7
:1005D000DF93EC0181E0888F9B8D8C8D98131AC07E
:1005E000E889F989808185FF15C09FB7F894EE8965
:1005F000FF896083E889F9898081837080648083C2
:100600009FBF81E090E0DF91CF911F910F91FF900C
:10061000EF900895F62E0B8D10E00F5F1F4F0F73B4
:100620001127E02E8C8D8E110CC00FB607FCFACF6F
:10063000E889F989808185FFF5CFCE010E94C1024A
:10064000F1CFEB8DEC0FFD2FF11DE35AFF4FF08240
:100650009FB7F8940B8FEA89FB8980818062CFCFA6
:10066000682F8AEB92E00C94E302CF93DF93EC01C6
:10067000888D8823B9F0AA89BB89E889F9898C918A
:1006800085FD03C0808186FD0DC00FB607FCF7CF46
:100690008C9185FFF2CF808185FFEDCFCE010E9446
:1006A000C102E9CFDF91CF91089520912902260F51
:1006B0003327331F21323105ECF420917802FC01FD
:1006C00090E080E0243069F082E00895A091290252
:1006D0002191AC01475F5D4FA40FB52FB11D2C9345
:1006E0000196861798F380912902680F609329027A
:1006F00080E0089581E008951092780281E080936F
:1007000077021092520261E082E10E94710161E081
:1007100083E10E947101E9EBF0E080818E7F8083AC
:1007200080818D7F808388E48093B80085E4809306
:10073000BC000895CF93DF9391E090930802882343
:10074000B9F0C091B800D091BA008091BC008A7B0A
:100750008093BC0060E082E10E94710160E083E16F
:100760000E9471010E947C03D093BA00C093B8002C
:10077000DF91CF9108950895E09151028091500248
:10078000E81730F4F0E0E851FE4F808190E00895E2
:100790008FEF9FEF089590915102809150022FEFBB
:1007A0003FEF981748F4E92FF0E0E851FE4F208121
:1007B00030E09F5F90935102C901089580915002EB
:1007C00090915102891B990B0895CF92DF92EF927D
:1007D000FF920F931F93CF93DF937C01CB018A018C
:1007E00020917E02222389F0EB016B01C40ED51EFD
:1007F000CC15DD0569F06991D701ED91FC9101906F
:10080000F081E02DC7010995F3CF642F0E945503B5
:10081000C801DF91CF911F910F91FF90EF90DF9072
:10082000CF900895CF93DF931F92CDB7DEB7698342
:1008300020917E022223F9F02091A102203258F06B
:1008400021E030E0FC013383228390E080E00F90D0
:10085000DF91CF91089580917F02E82FF0E0E0587A
:10086000FD4F998190838F5F80937F028093A102D7
:1008700081E090E0ECCF61E0CE0101960E9455034B
:10088000F7CF089590E080E008958F929F92AF9205
:10089000BF920F931F93CF93DF93CDB7DEB7A1978E
:1008A0000FB6F894DEBF0FBECDBF19A2423008F4D8
:1008B0004AE08E010F5D1F4F842E912CB12CA12C8C
:1008C000A50194010E94650DE62FB901CA01EA3025
:1008D00044F5E05DD801EE938D01232B242B252BCD
:1008E00079F790E080E0109769F0FD010190002019
:1008F000E9F73197AF014A1B5B0BBD0182ED93E035
:100900000E944302A1960FB6F894DEBF0FBECDBF82
:10091000DF91CF911F910F91BF90AF909F908F90DB
:100920000895E95CD7CFFC0101900020E9F73197E9
:10093000AF01481B590BBC0182ED93E00C944302BC
:10094000CF93DF93EC0160E08E810E94710161E042
:100950008E810E94710160E08E810E9471018BE89E
:1009600091E00197F1F7DF91CF910895CF92DF9257
:10097000EF92FF920F931F93CF93DF936C017C0153
:1009800087E0E80EF11CD0E0C0E0062F10E0B801CF
:100990000C2E02C0759567950A94E2F76170F70115
:1009A00081917F010E9471012196C430D10579F7B0
:1009B000C601DF91CF911F910F91FF90EF90DF90D3
:1009C000CF900C94A004CF92DF92EF92FF920F93FE
:1009D0001F93CF93DF93EC01F62E642F8C810E943E
:1009E00071018D818F3F19F060E00E9471010F2D20
:1009F00010E08F8584FF25C06E0187E0C80ED11CF2
:100A0000F12CE12CB8010E2C02C0759567950A9463
:100A1000E2F76170F60181916F010E947101FFEFB1
:100A2000EF1AFF0A88E0E816F10461F7CE01DF91C2
:100A3000CF911F910F91FF90EF90DF90CF900C948A
:100A4000A004B80184E0759567958A95E1F7CE0119
:100A50000E94B6046F2DCE01DF91CF911F910F91AF
:100A6000FF90EF90DF90CF900C94B60440E0682F99
:100A700082ED93E00C94E30481E00E9436058BE361
:100A80009FE10197F1F70895CF93DF93823029F426
:100A90009091E10398609093E1038093E5031092B5
:100AA000E60380E48093E70380E18093E80380E538
:100AB0008093E90361E08091D6030E949F018091B9
:100AC000D7038F3F19F061E00E949F0161E08091A0
:100AD000D8030E949F01C2EDD3E09E01225D334006
:100AE0008091E10384FD0BC084E090E021962817FB
:100AF000390744F461E08E810E949F01EECF88E0C7
:100B000090E0F4CF8BE39DE00197F1F760E08091F6
:100B1000D6030E94710160E08091D8030E947101A8
:100B20008091D7038F3F19F060E00E94710180919E
:100B3000E10384FD34C063E082ED93E00E94B604DB
:100B4000CBE4D6E4CE010197F1F763E082ED93E0C8
:100B50000E94B6042197F1F763E082ED93E00E94D2
:100B6000B60483E592E00197F1F762E082ED93E04D
:100B70000E94B6048091E10380620E94360584E001
:100B80008093E2038CE00E9436050E943C0582E0DF
:100B90008093E30386E0DF91CF910C943605806269
:100BA0000E9436058BE496E40197F1F78091E1030A
:100BB00080620E94360583E592E00197F1F780910B
:100BC000E10380620E943605D5CF9091E503691755
:100BD00010F06FEF690FE62FF0E0EE52FC4F9489B2
:100BE000890F80680C94360541E00E94E30481E09F
:100BF00090E00895CF92DF92EF92FF926C01990FEF
:100C0000EE08FF08F7FE16C041E06DE282ED93E0CA
:100C10000E94E30466277727CB016C197D098E09B2
:100C20009F094AE00E9445040196FF90EF90DF90F3
:100C3000CF9008954AE0C701B601FF90EF90DF9092
:100C4000CF900C94450485ED8093BC0080917A028E
:100C500090917B02A0917C02B0917D020796A11D2C
:100C6000B11D23E0B695A795979587952A95D1F75D
:100C70002091BC0024FD03C0109278020895409199
:100C80007A0250917B0260917C0270917D02452B2B
:100C9000462B472B69F30097A105B10541F02AE2E5
:100CA0002A95F1F700C00197A109B109E1CF809120
:100CB00079020C949A031F920F920FB60F9211248F
:100CC0002F933F938F939F93AF93BF938091B602DF
:100CD0009091B702A091B802B091B9023091B102DF
:100CE00023E0230F2D3758F50196A11DB11D209348
:100CF000B1028093B6029093B702A093B802B0936A
:100D0000B9028091B2029091B302A091B402B09165
:100D1000B5020196A11DB11D8093B2029093B3025A
:100D2000A093B402B093B502BF91AF919F918F9100
:100D30003F912F910F900FBE0F901F90189526E8AE
:100D4000230F0296A11DB11DD2CF1F920F920FB695
:100D50000F9211242F933F934F935F936F937F9341
:100D60008F939F93AF93BF93EF93FF938AEB92E0A0
:100D70000E94C102FF91EF91BF91AF919F918F911E
:100D80007F916F915F914F913F912F910F900FBE87
:100D90000F901F9018951F920F920FB60F9211246B
:100DA0002F938F939F93EF93FF93E091CA02F0915B
:100DB000CB028081E091D002F091D10282FD1BC074
:100DC00090818091D3028F5F8F732091D40282171C
:100DD00041F0E091D302F0E0E654FD4F958F80930F
:100DE000D302FF91EF919F918F912F910F900FBEA2
:100DF0000F901F9018958081F4CF1F920F920FB61D
:100E00000F9211242F933F934F935F936F937F9390
:100E10008F939F93AF93BF93EF93FF938091B9000C
:100E2000887F803609F44AC0F0F5883209F4A7C0FB
:100E300018F5803109F49BC0B8F4882309F4F9C08F
:100E4000883009F494C0FF91EF91BF91AF919F91C9
:100E50008F917F916F915F914F913F912F910F9063
:100E60000FBE0F901F901895883109F488C080320A
:100E700051F78093760214C0803409F49DC040F489
:100E80008033B9F38833F9F68093760285ECB0C0ED
:100E9000803509F485C0883509F496C0883499F600
:100EA0000E942306D0CF883909F48CC038F58837E2
:100EB00029F050F4883611F0803729F683E08093CA
:100EC000780210924B0257C0883809F47BC08039F1
:100ED00019F0803809F0B7CF80914B02803208F0CA
:100EE00071C0E0914B0281E08E0F80934B028091A4
:100EF000BB00F0E0E55DFD4F80833DC0803B39F0F5
:100F0000E0F4803A09F479C0883A09F09CCF84E093
:100F10008093780210922A0210922902E0914E02E8
:100F2000F0914F0209958091290281110FC081E053
:100F3000809329021092090209C0803C09F4A6CFCF
:100F4000883C09F4A3CF883B09F07DCFE0912A02C9
:100F500081E08E0F80932A02F0E0E75FFD4F8081F1
:100F60008093BB0090912A028091290229C0809130
:100F700053028093BB0085EC8093BC0064CF9091BA
:100F8000750280917402981758F5E091750281E01E
:100F90008E0F80937502F0E0EC5AFD4F8081E9CF0F
:100FA000E091750281E08E0F809375028091BB0005
:100FB000F0E0EC5AFD4F80839091750280917402AD
:100FC0009817C8F285E8D8CFE091750281E08E0FBE
:100FD000809375028091BB00F0E0EC5AFD4F808356
:100FE0008091770281115CCF81E08093520284EA84
:100FF0008093BC001092780226CF85EC8093BC00D1
:101000001092780280914B02803230F4E0914B02D2
:10101000F0E0E55DFD4F108260914B0270E0E091E1
:101020004C02F0914D028BE292E0099510924B0236
:101030000ACF1092760234CF1092BD021092BC02F9
:1010400088EE93E0A0E0B0E08093BE029093BF02F0
:10105000A093C002B093C10220E231E03093BB0202
:101060002093BA0225EC30E03093C7022093C602E9
:1010700024EC30E03093C9022093C80220EC30E029
:101080003093CB022093CA0221EC30E03093CD02A2
:101090002093CC0222EC30E03093CF022093CE029A
:1010A00026EC30E03093D1022093D0021092D3028C
:1010B0001092D4021092D5021092D60210925A03C6
:1010C0001092590380935B0390935C03A0935D039C
:1010D000B0935E0382E391E09093580380935703AB
:1010E0001092D5031092D4038EE491E09093D30331
:1010F0008093D2038DE08093D6038FEF8093D70344
:101100008CE08093D80388E08093D90389E08093B2
:10111000DA038AE08093DB038BE08093DC03109298
:10112000DD031092DE031092DF031092E0031092B1
:10113000E10381E00E944405109265031092690367
:101140001092680310926A0384E491E09093640320
:1011500080936303EFE7F3E0108214821382158219
:10116000369683E0EB3BF807B9F788E091E090937F
:10117000C6038093C50384E091E09093C8038093F5
:10118000C70384E08093C9038093CA038CE091E095
:101190009093C4038093C3038AE090E09093CC03C0
:1011A0008093CB0384EF91E09093CE038093CD03A3
:1011B0001092D1031092D0031092BF031092C0037B
:1011C0001092C1031092C2031092CF030895789435
:1011D00084B5826084BD84B5816084BD85B582603C
:1011E00085BD85B5816085BD80916E0081608093ED
:1011F0006E00109281008091810082608093810056
:101200008091810081608093810080918000816065
:10121000809380008091B10084608093B1008091C0
:10122000B00081608093B00080917A0084608093E8
:101230007A0080917A00826080937A0080917A00AF
:10124000816080937A0080917A00806880937A0030
:101250001092C10082E00E944405E091CA02F09120
:10126000CB0282E08083E091C602F091C702108237
:10127000E091C802F091C9028FEC80831092D202F3
:10128000E091CE02F091CF0286E08083E091CC0223
:10129000F091CD02808180618083E091CC02F09159
:1012A000CD02808188608083E091CC02F091CD02F4
:1012B000808180688083E091CC02F091CD028081B2
:1012C0008F7D8083109251021092500210927F0203
:1012D0001092A1020E947C0381E492E090934F025D
:1012E00080934E0282E492E090934D0280934C02F0
:1012F00060E080E00E94E50586E591E00E949304AD
:1013000061E080E00E94E50586E691E00E9493049A
:1013100061E08BE00E94E5058091E203982F9260E6
:101320009093E2038A600E9436058091E203982F31
:1013300091609093E20389600E94360558EE252E55
:1013400053E0352E812C912C5401839455245394D1
:1013500040E5442E5092CF038FB7F8944091B602E7
:101360005091B7026091B8027091B9028FBF80911D
:10137000BF039091C003A091C103B091C203481B69
:10138000590B6A0B7B0B8091CB039091CC03B0E09F
:10139000A0E084179507A607B70708F077C2C0E05A
:1013A0008091C903C81760F4E091C503F091C603AA
:1013B000EC0FF11D62E080810E949F01CF5FF0CFB2
:1013C000712C8091CA03781608F05FC0072D10E0D9
:1013D000E091C703F091C803E00FF11F61E0808145
:1013E0000E949F01E091C703F091C803E00FF11F35
:1013F00060E080810E947101D501C401072C04C006
:10140000880F991FAA1FBB1F0A94D2F76C017C0199
:10141000E094F094612C8091C9036816F8F4C62D0D
:10142000D0E0E091C503F091C603EC0FFD1F808171
:101430000E9448012496CC0FDD1FCD59DC4F892B2B
:1014400041F4888199818C299D29998388836394AB
:10145000E2CF888199818E219F21F7CFE091C70348
:10146000F091C803E00FF11F61E080810E947101DB
:101470008091C7039091C803080F191F60E0F8011D
:1014800080810E949F0173949CCFC3E6D3E08E01BC
:10149000F801878D90A1892B31F4148E2FEF3FEF47
:1014A000368F258F11A20A5F1F4F33E00F391307C4
:1014B00079F7F12C8091C903F81608F053C0E12C9C
:1014C0008F2D90E0880F991FFC01E559FC4F6F01AB
:1014D0002091CA03E21608F043C0F60160817181D1
:1014E0000E2C02C0769567950A94E2F7F29E900161
:1014F00011242E0D311DE3E6F3E080E0458D568D7D
:101500002417350709F4DFC28F5F36968A30B1F7AA
:1015100060FF24C0E3E6F3E090E080E0448D4111F9
:1015200018C0E091C303F091C403E20FF31F4081A0
:1015300056E0589FF001599FF00D1124ED59FC4FD2
:10154000448F368F258F10A2178E61E00E94AF0066
:1015500005C0019636968A30910501F7E394B8CF1D
:10156000F394A8CF80E099A19111892F26960C17AA
:101570001D07C9F79FB7F8944091B6025091B70282
:101580006091B8027091B9029FBF4093BF0350931E
:10159000C0036093C1037093C203882309F476C12A
:1015A000809102019091030120918403222309F488
:1015B0006DC120918203309183032130310509F000
:1015C00065C1C0917F03C11164C1809102019091F6
:1015D00003010F9709F042C28091A7029091A802DF
:1015E000829D9001839D300D929D300D112440917C
:1015F000A9025091AA0264E6649FC001659F900D04
:101600001124820F931F4091AB025091AC02EAE08B
:10161000E49F9001E59F300D1124820F931F2091CC
:10162000AD023091AE02820F931F9093A602809379
:10163000A5028091E2038D7F8093E20388600E947F
:1016400036050E9400020E943C0560E080E00E9496
:10165000E50586E791E00E94930461E080E00E9446
:10166000E50584E891E00E9493040E9400020E9434
:101670003C0560E080E00E94E5058EE891E00E9474
:10168000930460E089E00E94E5056091A5027091F5
:10169000A60290E080E04AE00E9445040E94000219
:1016A0000E943C0560E080E00E94E50587E991E04A
:1016B0000E94930461E080E00E94E50581EA91E0E8
:1016C0000E94930490E080E00E94300390E080E06C
:1016D0000E94300381E090E00E94300381E090E0BE
:1016E0000E94300381E190E00E9430038AEB92E097
:1016F0000E94A102892BD1F38AEB92E00E947F0223
:10170000813081F381E090E00E94300390E080E03E
:101710000E9430030E9400020E943C0560E080E0CD
:101720000E94E5058BEA91E00E94930461E080E06D
:101730000E94E50586EB91E00E94930490E080E032
:101740000E94300381E090E00E94300380E390E04B
:101750000E9430038AEB92E00E94A102892BD1F310
:101760008AEB92E00E947F02C82F8093A4028AEB4A
:1017700092E00E94A102892BD1F38AEB92E00E94B1
:101780007F029C2F2091A5023091A60228173907CD
:10179000E8F690E080E00E94300390E080E00E9454
:1017A00030030E9400020E943C0560E080E00E943D
:1017B000E5058FEB91E00E94930461E080E00E94D8
:1017C000E50589EC91E00E94930484E090E00E949A
:1017D000300381E090E00E94300382E090E00E94BC
:1017E000300381E090E00E94300381E390E00E94AA
:1017F00030038AEB92E00E94A102892BD1F38AEB9D
:1018000092E00E947F02C82F8093A4028AEB92E0AC
:101810000E94A102892BD1F38AEB92E00E947F0201
:10182000DC2FC82FD093A302C093A20260E08BE00C
:101830000E94E505CE010E94FA05C091A202D09156
:10184000A302CA31D1058CF284E090E00E943003FB
:1018500090E080E00E94300382E090E00E9430033C
:1018600090E080E00E9430030E94000260E08BE084
:101870000E94E505CE010E94FA0561E080E00E9429
:10188000E50588ED91E00E949304DFC01092CF033C
:101890009CCE8F3091050CF098CE61E00E94E5055A
:1018A00041E06C2F82ED93E00E94E304E091AF02EF
:1018B000F091B002EE0FFF1FE955FD4F8C2F0C2E5B
:1018C000000C990BC0979183808350927E024092C6
:1018D000A00210927F021092A1026091000187E5A0
:1018E00093E00E9412046C2F87E593E00E9412049B
:1018F000C091A102C13208F090C00E94DB016B01CF
:101900007C0180917802811163C082E0809378022B
:10191000509277028FEF8093760210927502C093F7
:101920007402A0E8B2E0E4E5F2E080E0C813A3C0EE
:101930001092530280915302806A809353028091E7
:101940005202813009F09BC0109252020E94DB01CA
:101950006B017C01809153028093BB0080917A02DD
:1019600090917B02A0917C02B0917D02892B8A2B01
:101970008B2B99F00E94DB0100917A0210917B027F
:1019800020917C0230917D026C197D098E099F099E
:101990000617170728073907E0F18091BC0083FD7F
:1019A000D9CF85EC8093BC000E94DB016B017C01E8
:1019B00080917802823009F464C0809176028F3F72
:1019C00061F180917602803241F18091760225C0EA
:1019D00080917A0290917B02A0917C02B0917D026D
:1019E000892B8A2B8B2B09F48CCF0E94DB01009171
:1019F0007A0210917B0220917C0230917D026C1959
:101A00007D098E099F09061717072807390708F06F
:101A100078CF809179020E949A0310927F021092EF
:101A2000A10210927E028091AF029091B0020196C5
:101A30009093B0028093AF028091000190910101D8
:101A40000196909301018093000180910201909191
:101A500003010196909303018093020120E030E09E
:101A6000232B09F477CC0E94AD02882309F46ECCB5
:101A70000E9400006BCC9D9191938F5F57CF85EEB4
:101A800091CF80917A0290917B02A0917C02B091DB
:101A90007D02892B8A2B8B2B09F48ACF0E94DB01D4
:101AA00000917A0210917B0220917C0230917D029C
:101AB0006C197D098E099F09061717072807390732
:101AC00008F076CFA6CF617041CDA1E21A2EAA1BF5
:101AD000BB1BFD010DC0AA1FBB1FEE1FFF1FA217DE
:101AE000B307E407F50720F0A21BB30BE40BF50BDB
:101AF000661F771F881F991F1A9469F76095709564
:101B0000809590959B01AC01BD01CF010895EE0F2A
:0E1B1000FF1F0590F491E02D0994F894FFCF8B
:101B1E0010000B00070605040E0F10113132334171
:101B2E0034353642373839432A302344000000001A
:101B3E00E302430270023503A1027F02930200000A
:101B4E0000001204E5034204BB03DE03CB03BC0317
:101B5E000000000036023A023E0200000000F405CA
:101B6E004302420441045453494747455248532CBB
:101B7E00203230323600454E54455220564F4C3AA4
:101B8E00203F3F3F3F00534156494E4720564F4C52
:101B9E00554D4500544F20454550524F4D00564F20
:101BAE004C554D452020004F55544C4554204F4E1A
:101BBE0000494E4C4554204F4646004F55544C4517
:101BCE0054204F464600494E4C4554204F4E00542B
:101BDE00454D50202020202000535449522F484577
:101BEE0041544552204F4E004359434C4520434FDC
:081BFE004D504C455445000018
:00000001FF
